:400000000080002011000000810600008106000008B5044B1A6803F53F5302331A6000F037FB00BFFA46004010B5054C237833B9044B13B10448AFF300800123237010BD37
:400040004081FF1F0000000040180000084B10B51BB108490848AFF300800848036803B910BD074B002BFBD0BDE81040184700BF000000004481FF1F40180000C880FF1F62
:400080000000000008B5782000F0B4FC782000F027FD782000F09AFD782000F00DFE002000F0AEFC002000F021FD002000F094FD002000F007FE08BD08B5002000F09AFC27
:4000C000002000F00DFD002000F080FD002000F0F3FD782000F094FC782000F007FD782000F07AFD782000F0EDFD08BD08B5782000F080FC002000F069FD002000F0F0FC4C
:40010000782000F0D9FD002000F07AFC782000F063FD782000F0EAFC002000F0D3FD08BD08B5002000F066FC782000F04FFD782000F0D6FC002000F0BFFD782000F060FCD3
:40014000002000F049FD002000F0D0FC782000F0B9FD08BD08B5782000F04CFC782000F035FD002000F0BCFC002000F0A5FD002000F046FC002000F02FFD782000F0B6FCC1
:40018000782000F09FFD08BD08B5002000F032FC002000F01BFD782000F0A2FC782000F08BFD782000F02CFC782000F015FD002000F09CFC002000F085FD08BD08B578205F
:4001C00000F018FC782000F08BFC002000F0FEFC002000F071FD002000F012FC002000F085FC782000F0F8FC782000F06BFD08BD08B5002000F0FEFB002000F071FC002021
:4002000000F0E4FC002000F057FD002000F0F8FB002000F06BFC002000F0DEFC002000F051FD08BD08B562B600F004FB00F050FB00F0D4FD00F0B6FD00F030FC00F0C6FBD3
:4002400000F0A2FC00F038FC00F014FD00F0AAFC00F086FD00F01CFD574B1B68032B0CDC00F0CAFD554B187020280CD0524A13685349C8540133136005E0514800F0DEFDBC
:4002800000224D4B1A604E4B5B78772B02D101214C4A1160672B02D100224A4B1A60494B1B68012B01D1FFF7A3FF454B5B78752B05D1444B1B68012B01D1FFF7E3FE404B72
:4002C0005B78642B05D13F4B1B68012B01D1FFF7F3FE3B4B5B786C2B05D13A4B1B68012B01D1FFF703FF364B5B78722B05D1354B1B68012B01D1FFF713FF314B5B78662B60
:4003000005D1304B1B68012B01D1FFF73DFF2C4B5B78612B05D12B4B1B68012B01D1FFF719FF274B5B78732B0ED1FFF761FF0BE0012000F007FA0A2000F094FA002000F03B
:4003400001FA012000F08EFA00F002FA0028EFD000F0FEF90128FBD000F07AFAC0F57F40FF30154C606000F0EDFE0022164B01F079F801F05FF9A060144901F003FA40B1CE
:40038000104B1B682BB900220E4B1A60FFF77AFE02E00122084BDA60074BDB68013B262B06D8FFF70BFF044AD3680133D36053E70022014BDA604FE75C81FF1FAC81FF1F38
:4003C0008481FF1FB481FF1F00004D400000F041FEE700BFF0B40022174611E050F82760F3B226F0FF0608E001EB420511F812406D78A5550132013BDBB2002BF4D1013709
:400400001D2FEBD9F0BC7047064B1B78DBB203F00701054A11701B09013213704422034B1A707047CF0100496E5800407658004008B50A46002101F0FAF908BD38B501222A
:40044000314B1A801823314A1370172102321180023213701925023215800232137040F23F622B490A8002310B7002310A8002310B7002310A8002310B7002310A80254A3A
:4004800013700222244B1A7008224FF040231A70032103F500731970204B1B78DBB220490B70204B1A8041F25122023B1A8000240CE01D4B1B7803F0010343EA440404F0D2
:4004C00003044FF4F07000F0DBFC013D0DB1032CEFD115B90320FFF77BFF144B4FF480721A8007221A70002211490A704820023108701A700222033B1A700E4A137843F0C9
:400500007F03137038BD00BF80400040824000408C4000409A4000400043004008010049A146004022420040254200400440004006400040A243004008B501F06DF908BD8B
:4005400038B572B6394A137843F00403137000240CE0374D630019194A0011462A44084691882858FFF764FF0134E4B2072CF0D900240BE02E49A3001819420088180622F8
:40058000416B006BFFF7D8FF0134E4B2002CF1D028494FF09040FFF71DFF274A274B1A60274A137843F0020313701032137843F002031370234C237843F040032370A2F5C7
:4005C0008632513A137843F01003137008221E491E48FFF7B1FF0A221D491E48FFF7ACFF08221D491D48FFF7A7FF0A221C491D48FFF7A2FF08221C491C48FFF79DFF1C4A25
:40060000137843F0080313701A4D61232B70FFF715FF81232B700122174B1A70FFF7F4FE0E2221461548FFF787FF38BDE84600404418000078000048040404C4D80C0140C4
:4006400003500140A043004044090048025100404C090048C0510040580900481251004060090048205100406C09004832510040224300400048004004000840B0430040D3
:4006800008B501F09DF803680C2B00D1FEE7FEE708B5104E104D16E029686B68AC68002204E051F8040B43F8040B0432A242F8D1E868002203E0002143F8041B043282427F
:4006C000F9D11035013E002EE6D101F07FF8FFF7A9FDFEE701000000A418000008B5104A104B1A60104A136843F40073136000230AE0032B03D80D4A52F8231000E00C4924
:400700000C4A42F8231001332F2BF2D90A4B1A780A4B1A70074A0A4B1A60FFF711FF08BD0004FA050CED00E014ED00E000000000810600000080FF1FBC760040C080FF1F3A
:4007400008ED00E0014B1870704700BF79650040014B1878C009704711510040084A137843F0010313701032137843F00103137002F64D32137843F001031370704700BFEE
:40078000A3430040014B1870704700BF034F0040014B1880704700BF044F0040014B1880704700BF064F004008B51F4A137803F0010313701D4B1A7802F0FC021A701A782A
:4007C00002F0F3021A701A7842F00C021A701A7802F07F021A701A7842F080021A701A78D2B21A7009331A7802F0CF021A701A7842F030021A701A7802F0F0021A701A7800
:4008000042F00F021A700A4A137843F0010313704FF6FF70FFF7BCFF4FF6FF70FFF7BEFF0020FFF7AFFF08BD004F0040024F0040014F004008B5054B1B7823B9FFF7B4FF28
:400840000122024B1A70FFF789FF08BD7881FF1F024B1B88024B188880B27047064F0040084F004010B5044605E0084B186800F007FBA4F50044B4F5004FF6D8034B5868C8
:4008800000FB04F000F0FCFA10BD00BFCC80FF1F024B187800F00F00704700BF6A640040014B1870704700BF8A64004008B50F20FFF7F6FFFFF7ECFF00F0EAFA034A137831
:4008C00043F01003137000F0E7FA08BD9A64004008B500F06DF8802000F020F8044B1B7813B90122024B1A70FFF7E0FF08BD00BF7981FF1F024A137843F0800313707047C1
:400900007D640040014B1870704700BF8D640040014B1878704700BF6D640040014B1870704700BF0D640040014B1878704700BF4D640040014B1870704700BF2D6400405F
:40094000014B1870704700BF3D64004008B501E0FFF7EAFFFFF7DCFF10F0400FF8D108BD08B5114B1A7802F0F8021A701A7802F0FC021A70FFF7EAFF8020FFF7DBFF802005
:40098000FFF7CCFF0020FFF7BDFFFFF7C1FF8020FFF7D6FF00F07CFA044A137843F01003137000F079FA08BD7D6400409D64004008B5054B1B7823B9FFF7D2FF0122024B3E
:4009C0001A70FFF797FF08BD7A81FF1F024A137843F080031370704773640040014B1870704700BF0B640040014B1870704700BF4B640040014B1870704700BF2B640040DA
:400A0000014B1870704700BF3B640040014B1870704700BF8B640040014B1878704700BF6B640040014B1878704700BF5B64004008B501E0FFF7F6FFFFF7EEFF10F0100FD7
:400A4000F8D108BD10B5134A137803F0C00343F009031370104C237843F001032370FF20FFF7BCFFFF20FFF7BFFF0020FFF7C2FF0020FFF7C5FF0020FFF7C8FF00F008FADF
:400A8000237843F01003237000F006FAFFF7D0FF10BD00BF736400409B64004008B5054B1B7823B9FFF7CEFF0122024B1A70FFF78DFF08BD7B81FF1F024A137843F0800304
:400AC0001370704774650040014B1870704700BF04650040014B1870704700BF44650040014B1870704700BF24650040014B1870704700BF34650040014B1870704700BFFD
:400B000084650040014B1878704700BF64650040014B1878704700BF5465004008B501E0FFF7F6FFFFF7EEFF10F0100FF8D108BD10B5134A137803F0C00343F009031370A8
:400B4000104C237843F001032370FF20FFF7BCFFFF20FFF7BFFF0020FFF7C2FF0020FFF7C5FF0020FFF7C8FF00F092F9237843F01003237000F090F9FFF7D0FF10BD00BFCA
:400B8000746500409465004008B5054B1B7823B9FFF7CEFF0122024B1A70FFF78DFF08BD7C81FF1F024A137843F080031370704778640040014B1870704700BF0264004075
:400BC000014B1870704700BF42640040014B1870704700BF22640040014B1870704700BF32640040014B1870704700BF82640040014B1878704700BF62640040014B1878F1
:400C0000704700BF5264004008B501E0FFF7F6FFFFF7EEFF10F0100FF8D108BD10B5134A137803F0C00343F009031370104C237843F001032370FF20FFF7BCFFFF20FFF764
:400C4000BFFF0020FFF7C2FF0020FFF7C5FF0020FFF7C8FF00F01CF9237843F01003237000F01AF9FFF7D0FF10BD00BF786400409264004008B5054B1B7823B9FFF7CEFFCA
:400C80000122024B1A70FFF78DFF08BD7D81FF1F024A137843F080031370704775650040014B1870704700BF05650040014B1870704700BF45650040014B1870704700BF84
:400CC00025650040014B1870704700BF35650040014B1870704700BF85650040014B1878704700BF65650040014B1878704700BF5565004008B501E0FFF7F6FFFFF7EEFF7E
:400D000010F0100FF8D108BD10B5134A137803F0C00343F009031370104C237843F001032370FF20FFF7BCFFFF20FFF7BFFF0020FFF7C2FF0020FFF7C5FF0020FFF7C8FFEF
:400D400000F0A6F8237843F01003237000F0A4F8FFF7D0FF10BD00BF756500409565004008B5054B1B7823B9FFF7CEFF0122024B1A70FFF78DFF08BD7E81FF1F7222084BBC
:400D80001A702022033B1A700622A3F25F131A70472210331A70002250331A70704700BF8B65004010B500F073F804460A4A137843F020031370033A137843F01003137028
:400DC000FF3A137843F01003137000F049F8204600F062F810BD00BF9B65004008B5054B1B7823B9FFF7CAFF0122024B1A70FFF7D9FF08BD7F81FF1F084B1B78DBB213F05D
:400E0000200F06D0064A1078C0B213F01E0F02D17047002070470020704700BF6865004048650040034B1B7813F0040FFAD1024B18707047696400404965004038B5074BBA
:400E40001B782BB938BDFFF7EDFF0134A4B201E005460024285D0028F5D138BD7F81FF1F054A137843F0040313701032137843F004031370704700BFA24300400000000007
:400E80000230800803D000BF01380046FCD17047EFF3108072B6704780F31088704700BF81F0004102E000BF83F0004330B54FEA41044FEA430594EA050F08BF90EA020F40
:400EC0001FBF54EA000C55EA020C7FEA645C7FEA655C00F0E2804FEA5454D4EB5555B8BF6D420CDD2C4480EA020281EA030382EA000083EA010180EA020281EA0303362D13
:400F000088BF30BD11F0004F4FEA01314FF4801C4CEA113102D0404261EB410113F0004F4FEA03334CEA133302D0524263EB430394EA050F00F0A780A4F10104D5F1200E1B
:400F40000DDB02FA0EFC22FA05F2801841F1000103FA0EF2801843FA05F359410EE0A5F120050EF1200E012A03FA0EFC28BF4CF0020C43FA05F3C01851EBE37101F0004535
:400F800007D54FF0000EDCF1000C7EEB00006EEB0101B1F5801F1BD3B1F5001F0CD349085FEA30004FEA3C0C04F101044FEA445212F5800F80F09A80BCF1004F08BF5FEA54
:400FC000500C50F1000041EB045141EA050130BD5FEA4C0C404141EB010111F4801FA4F10104E9D191F0000F04BF01460020B1FA81F308BF2033A3F10B03B3F120020CDA2C
:401000000C3208DD02F1140CC2F10C0201FA0CF021FA02F10CE002F11402D8BFC2F1200C01FA02F120FA0CFCDCBF41EA0C019040E41AA2BF01EB0451294330BD6FEA04043C
:401040001F3C1CDA0C340EDC04F11404C4F1200220FA04F001FA02F340EA030021FA04F345EA030130BDC4F10C04C4F1200220FA02F001FA04F340EA0300294630BD21FA76
:4010800004F0294630BD94F0000F83F4801306BF81F480110134013D4EE77FEA645C18BF7FEA655C29D094EA050F08BF90EA020F05D054EA000C04BF1946104630BD91EACA
:4010C000030F1EBF0021002030BD5FEA545C05D14000494128BF41F0004130BD14F580043CBF01F5801130BD01F0004545F0FE4141F470014FF0000030BD7FEA645C1ABF7A
:40110000194610467FEA655C1CBF0B46024650EA013406BF52EA033591EA030F41F4002130BD00BF90F0000F04BF0021704730B54FF4806404F132044FF000054FF0000140
:4011400050E700BF90F0000F04BF0021704730B54FF4806404F1320410F0004548BF40424FF000013EE700BF42004FEAE2014FEA31014FEA02701FBF12F07F4393F07F4FBF
:4011800081F06051704792F0000F14BF93F07F4F704730B54FF4607401F0004521F0004120E700BF50EA010208BF704730B54FF000050AE050EA010208BF704730B511F031
:4011C000004502D5404261EB41014FF4806404F132045FEA915C3FF4DCAE4FF003025FEADC0C18BF03325FEADC0C18BF033202EBDC02C2F1200300FA03FC20FA02F001FA1F
:4012000003FE40EA0E0021FA02F11444C1E600BF70B54FF0FF0C4CF4E06C1CEA11541DBF1CEA135594EA0C0F95EA0C0F00F0DEF82C4481EA030621EA4C5123EA4C5350EA8E
:40124000013518BF52EA033541F4801143F4801338D0A0FB02CE4FF00005E1FB02E506F00042E0FB03E54FF00006E1FB03569CF0000F18BF4EF0010EA4F1FF04B6F5007FED
:4012800064F5407404D25FEA4E0E6D4146EB060642EAC62141EA55514FEAC52040EA5E504FEACE2EB4F1FD0C88BFBCF5E06F1ED8BEF1004F08BF5FEA500E50F1000041EBE8
:4012C000045170BD06F0004646EA010140EA020081EA0301B4EB5C04C2BFD4EB0C0541EA045170BD41F480114FF0000E013C00F3AB8014F1360FDEBF002001F0004170BD92
:40130000C4F10004203C35DA0C341BDC04F11404C4F1200500FA05F320FA04F001FA05F240EA020001F0004221F0004110EBD37021FA04F642EB06015EEA430E08BF20EAD7
:40134000D37070BDC4F10C04C4F1200500FA04F320FA05F001FA04F240EA020001F0004110EBD37041F100015EEA430E08BF20EAD37070BDC4F1200500FA05F24EEA020EB1
:4013800020FA04F301FA05F243EA020321FA04F001F0004121FA04F220EA020000EBD3705EEA430E08BF20EAD37070BD94F0000F0FD101F00046400041EB010111F4801FD6
:4013C00008BF013CF7D041EA060195F0000F18BF704703F00046520043EB030313F4801F08BF013DF7D043EA0603704794EA0C0F0CEA135518BF95EA0C0F0CD050EA4106EB
:4014000018BF52EA4306D1D181EA030101F000414FF0000070BD50EA410606BF1046194652EA430619D094EA0C0F02D150EA013613D195EA0C0F05D152EA03361CBF104661
:4014400019460AD181EA030101F0004141F0FE4141F470014FF0000070BD41F0FE4141F4780170BD70B54FF0FF0C4CF4E06C1CEA11541DBF1CEA135594EA0C0F95EA0C0FE1
:4014800000F0A7F8A4EB050481EA030E52EA03354FEA013100F088804FEA03334FF0805545EA131343EA12634FEA022245EA111545EA10654FEA00260EF000419D4208BF9E
:4014C000964244F1FD0404F5407402D25B084FEA3202B61A65EB03055B084FEA32024FF480104FF4002CB6EB020E75EB030E22BFB61A754640EA0C005B084FEA3202B6EB1E
:40150000020E75EB030E22BFB61A754640EA5C005B084FEA3202B6EB020E75EB030E22BFB61A754640EA9C005B084FEA3202B6EB020E75EB030E22BFB61A754640EADC00B0
:4015400055EA060E18D04FEA051545EA16754FEA06164FEAC30343EA52734FEAC2025FEA1C1CC0D111F4801F0BD141EA00014FF000004FF0004CB6E711F4801F04BF014310
:401580000020B4F1FD0C88BFBCF5E06F3FF6AFAEB5EB030C04BFB6EB020C5FEA500C50F1000041EB045170BD0EF0004E4EEA113114EB5C04C2BFD4EB0C0541EA045170BDAC
:4015C00041F480114FF0000E013C90E645EA060E8DE60CEA135594EA0C0F08BF95EA0C0F3FF43BAF94EA0C0F0AD150EA01347FF434AF95EA0C0F7FF425AF104619462CE718
:4016000095EA0C0F06D152EA03353FF4FDAE1046194622E750EA410618BF52EA43067FF4C5AE50EA41047FF40DAF52EA43057FF4EBAE12E74FEA4102B2F1E04324BFB3F562
:40164000001CDCF1FE5C0DD901F0004C4FEAC0024CEA5070B2F1004F40EB830008BF20F00100704711F0804F21D113F13872BCBF01F00040704741F480114FEA5252C2F1BB
:401680001802C2F1200C10FA0CF320FA02F018BF40F001004FEAC1234FEAD32303FA0CFC40EA0C0023FA02F34FEA4303CCE77FEA625307D150EA01331EBF4FF0FE4040F457
:4016C0004000704701F0004040F0FE4040F40000704700BF4FF0FF3C06E000BF4FF0010C02E000BF4FF0010C4DF804CD4FEA40024FEA41037FEA226C18BF7FEA236C11D09D
:4017000001B052EA530C18BF90EA010F58BFB2EB030088BFC81738BF6FEAE17018BF40F0010070477FEA226C02D15FEA402C05D17FEA236CE4D15FEA412CE1D05DF8040BF2
:40174000704700BF844608466146FFE70FB5FFF7C9FF002848BF10F1000F0FBD4DF808EDFFF7F4FF0CBF012000205DF808FB00BF4DF808EDFFF7EAFF34BF012000205DF8D9
:4017800008FB00BF4DF808EDFFF7E0FF94BF012000205DF808FB00BF4DF808EDFFF7D2FF94BF012000205DF808FB00BF4DF808EDFFF7C8FF34BF012000205DF808FB00BFBF
:4017C000014B1868704700BF3C81FF1F0E4B70B51E460E4C0025E41AA410A54204D056F8253098470135F8E700F04AF8084B094C1E46E41AA4100025A54204D056F82530F4
:4018000098470135F8E770BD8C1800008C1800008C1800009418000010B5431E0A44914204D011F8014B03F8014FF8E710BD03460244934202D003F8011BFAE770470000A3
:4018400000000000004F00400C00405100403000F0510040100000000140001000140140000800400140000A004C01400002005001402000605200403C09004806004300FA
:40188000F8B500BFF8BC08BC9E4670474D000000DD060000F8B500BFF8BC08BC9E46704729000000B8180000C880FF1F780000007800000000000000000000000000E02E9D
:4018C000C05D00001800000000366E0100000000000000000000000000000000000000000000000000000000000000007E1800000000000000000000000000000000000078
:401900000000000000000000000000000000000000000000000000000000000000000000000000000000000000000000DC80FF1F000000000000000000000000000000002D
:401940000000000000000000000000000000000000000000000000000000000000000000000000000000000000000000000000000000000000000000000000000000000067
:401980000000000000000000000000000000000000000000000000000000000000000000000000000000000000000000000000000000000000000000000000000000000027
:4019C00000000000000000000000000000000000000000000000000000000000000000000000000000000000000000000000000000000000000000000000000000000000E7
:401A000000000000000000000000000000000000000000000000000000000000000000000000000000000000000000000000000000000000000000000000000000000000A6
:020000040003F7
:0200000480007A
:40000000024F004005520040056400400465004053020140370301400C050140040701405E080140460901404B0A0140450B01404E0C0140390D01405F1401403E150140CF
:40004000021701405F18014044190140411A01403F1B01400A410140034201400243014007450140034801400E490140044C0140094D01400750014001100AB10005010CB2
:400080000940180A190C820F890F8A0F8B0F8D6F840F850F88388B72030E0701110112051508160426022A092F02300231083204330234013504360837013E0440404106AC
:4000C00045D046204715483A49FF4AFF4BFF4DA04F0450185407580459045A045B045C335D335F01604062C06440654066C068C06AC06CC06EC0801082208403850E8C20FF
:400100008D168E108F0890069118930294109518962097049B019D109F02A005A806AC10AE28AF1EB008B101B31EB407B630B820BA80D280D804D904DB04DD50DF010004EC
:400140000182080209080D020F20124A16081708180419821D061E421F102020220A2441271429802E403020328936013704380439803A403C023E0845024F2154015608A4
:4001800057105C405D085E105F01650C7340841087108B408F10C00DC23CC46BCA18CCCFCECAD080D220D6F0E008E64895809F08A805AA90AC22AD08AE01B180E601E8044A
:4001C000EA02EE06870895809F08E20804FD05050602070A087309030B0C0D0A0F05109E1260149416601830190F1AC920CF210C22302303260F271029072F10330F351076
:4002000036FF3E403F105280580459045B045D305F0184318580860E8980902C9203943195539606970C9A0C9B089C409D80A103A208A344A520A745A953AA13AB04AD0A0A
:40024000AF54B00FB140B240B30FB430B530B780B820B9A0BA02BB08BE14BF41C002C540C9FFCA07CBFFCC40CD20CEF0CF05D008D401D804D904DA04DB04DC22DD22DF01E0
:40028000E040E1A8E240E3200008021004200720081009080A810B020E400F1810081280130C1509180419041A801B011F40200221182210238027382A142B812D812E202B
:4002C0002F20309031083210372038203A203B083E403F1840044A8050085204582059045A015B807640864088408B209020910992409318961A97809D029F10A080A220DF
:40030000A304A441C064C27FC43ACAFFCC2ECE76D004D60F01010302070709010A030B020C030F0819071F10200421072404280129042A022F0431103204330F3401360211
:4003400038083E50540F580459045B045F0187068A029101960497029D04A605AE09AF01B008B204B304B401B502B602B701BE04C030C106C5D0C620C715C83AC9FFCAFFDF
:40038000CBFFCDA0CF04D018D407D804D904DA04DB04DC55DD55DF01E040E2C0E440E540E6C0E8C0EAC0ECC0EEC00010020206080F2010A0120816011708181019901D45D6
:4003C0001F202104220A2408264027202A402B442F02318033103541370839083B923E0847084F215609571259905B055D085E805F21650C8004902091019240931A9508A7
:40040000961A9A409B0D9D02A0A0A180A220A344A441A602A720A810A904AB44AE44B310C043C220C4AECA1DCCDCCE4FD040D220D6FFEC8008070C0B0E04100C12021408BA
:4004400016011A0F200C220127012E10300F34103501580459045C505F01860188128A0C8B088C068D048E019005910292029408961098089A109C089E109F02A007A30484
:40048000A403A806AB05B101B218B304B407B508B702BA08BF44C065C103C523C6C4C70EC81FC9FFCAFFCBFFCDA0CF01D018D280D40FD804D904DA04DB04DF05E040E28066
:4004C000E440E540E680E840EA80EC40ED20EE8000840309042007050A520B040E800F18110913101642180419201B0C1EC41F0122682344270829212F10318032023A2039
:400500003B40410448A14A084B085188521059025A885B106108621071017B40808083108501864087208B108E22C0C7C27FC49ECA45CC09CE0CD002D20CD60FD806DE0177
:40054000E020020404010B010F0E120819082A072F03300431023202330134013504360837083F044050410645D046214705481E49FF4AFF4BFF4DA04F04501852805407F7
:40058000580459045A045B045C445D445F01604062C06440654066C068C06AC06CC06EC0820283018605960497029908AB0EAD01AE09B008B108B202B302B404B504B601C0
:4005C000B701BE10C030C106C5D0C620C751C83AC9FFCAFFCBFFCDA0CF04D018D280D407D804D904DA04DB04DC66DD66DF01E040E2C0E440E540E6C0E8C0EAC0ECC0EEC041
:4006000000010108050406800B400F20120816011801195A1C021D0C1E482120224524602610270229402E402F0831203504361038803B203F02450849414B204F2150403E
:40064000520853105601571959115A885C405D205E085F017340768080108401852087028A018D02C03CC228C482CA38CC64CE8CD040D22CD6FFE260EA04EE04A940EA0134
:400680000442069108E70F0114841651170118011A0E28E72C203020310132C0340736183B083E403F01406441024203440146EC480C49FF4AFF4BFF4C624DA04EF04F4172
:4006C000500C5418580459045A045B045C225D225F016640670269106A306B106D106E106F128402872089098BD093039510960897AC990C9B719D109F40A206A514A601CB
:40070000ADDCAF22B002B11FB201B404B5E0B608BB20BE01C036C102C5EBC60CC807C9FFCAFFCBFFCEF0CF44D00CD804D904DA04DB04DC20DD02DF01E6C0EA40EB02000481
:40074000042005080A100E24108012201550180419021A121C201D821E2420082120220223402480271029042B013128328236083708388039203A443F8041284582468063
:400780004718480849044B024F20538057605E02664067046A409120930C961A97029A049D82A088A108A2A0A301A404A7A0A820ABA0C064C264C4CCCA0ACC4FCE16D0F65A
:4007C000D224D680D8300201040107030D040E0111021401310133023504360138803F14580459045C025F01801C81448223840C8508880489808C1F8D1C8E208FE1911027
:40080000943395C0960C980399189C089F04A13CA223A3C2A402A5FFA83FA9E7AB18AC01AE40AFE3B02CB1C0B20FB338B410B640B71FBA0ABB80BE10D602D712D804D904DF
:40084000DB04DC22DD20DF0100400102031004420502072809080C800E2C0F2016A2171019801C441D481E201F0821022224240226092D022E802F2831023330354036040D
:4008800037213B483C603E2A5C046C106D50748076087729862089088A02920493489420955096089A809B109D88A010A609A710AA40C0FDC2E4C4F0CAF0CCF1CEFAD640ED
:4008C000E402E804EE045004540257205810841087208C02D4E0D620E65080049408E6806880DC20030204408C408F02C003E202E6026408A480D880531057815A408240E4
:4009000087018B108F80A888D4E0D620E220E610EA20EE200F086201C201D8021040740484048840AA01AB04C408DE04E201002D08290C2D0E2110551A501C0580800000CB
:4009400040000000000F0F000F00000080004080800080000000000080CB4B00400000000C00000C0000000000000000000F0F000F000000000000000000000000000000AF
:400980000000000000000000000000000000000000000000000000000000000000000000000000000000000000000000000000000000000000000000000000000000000037
:4009C00000000000000000000000000000000000000000000000000000000000000000000000000000000000000000000000000000000000000000000000000000000000F7
:400A000000000000000000000000000000000000000000000000000000000000000000000000000000000000000000000000000000000000000000000000000000000000B6
:400A40000000000000000000000000000000000000000000000000000000000000000000000000000000000000000000000000000000000000000000000000000000000076
:0200000490006A
:0400000000004005B7
:0200000490105A
:04000000BC90ACAF55
:0200000490303A
:02000000C4B882
:0200000490402A
:4000000000000000000000000000000000000000000000000000000000000000000000000000000000000000000000000000000000000000000000000000000000000000C0
:400040000000000000000000000000000000000000000000000000000000000000000000000000000000000000000000000000000000000000000000000000000000000080
:400080000000000000000000000000000000000000000000000000000000000000000000000000000000000000000000000000000000000000000000000000000000000040
:4000C0000000000000000000000000000000000000000000000000000000000000000000000000000000000000000000000000000000000000000000000000000000000000
:0200000490501A
:0C00000000012E16106900012E22D521EF
:00000001FF